:020000040800F2
:10000000180800203905000891050008910500082E
:100010009105000891050008910500080000000006
:100020000000000000000000000000009105000832
:1000300091050008000000009105000899070008DC
:100040009105000891050008910500089105000838
:100050009105000891050008910500089105000828
:100060009105000891050008910500089105000818
:100070009105000891050008910500089105000808
:1000800091050008910500089105000891050008F8
:1000900091050008910500089105000891050008E8
:1000A00091050008910500089105000891050008D8
:1000B00091050008910500089105000891050008C8
:1000C00091050008910500089105000891050008B8
:1000D00091050008910500089105000891050008A8
:1000E0009105000891050008910500089105000898
:1000F0009105000891050008910500089105000888
:100100009105000891050008910500089105000877
:100110009105000891050008910500089105000867
:100120009105000891050008910500089105000857
:100130009105000891050008910500089105000847
:100140009105000891050008910500089105000837
:100150009105000891050008910500089105000827
:100160009105000891050008910500089105000817
:100170009105000891050008910500089105000807
:10018000910500089105000880B584B000AF0420F7
:10019000012100F081FA0323BB800023FB804FF490
:1001A0007A73BB600023BB810023BB733B1D0548F2
:1001B000194600F0CFFE0348012100F035FF10374B
:1001C000BD4680BD0008004080B586B000AF7023FA
:1001D000BB800123FB8002233B8244F29E13FB6021
:1001E0003B1D0A48194600F03FFF0848082100F06F
:1001F000B5FF3B1D0548194600F036FF03480821AE
:1002000000F0ACFF1837BD4680BD00BF00080040BD
:1002100080B582B000AF1820012100F001FA012062
:10022000012100F01BFA3F4800210C2200F0A4FD40
:100230003C4801210C2200F09FFD3A4804210C2289
:1002400000F09AFD374805210C2200F095FD354855
:1002500007210C2200F090FD324808210C2200F00A
:100260008BFD304809210C2200F086FD2D480A2123
:100270000C2200F081FD2B480E210C2200F07CFDA9
:1002800028480F210C2200F077FD4CF2B3733B603D
:1002900002233B7102237B710023BB710023FB719E
:1002A0003B462048194600F0BDFC1F4803210C22A4
:1002B00000F062FD1C4807210C2200F05DFD1A4889
:1002C00008210C2200F058FD174809210C2200F0EB
:1002D00053FD15480A210C2200F04EFD12480B2157
:1002E0000C2200F049FD10480C210C2200F044FDC6
:1002F0000D480D210C2200F03FFD0B480E210C2271
:1003000000F03AFD08480F210C2200F035FD4FF6B1
:1003100088733B603B460448194600F083FC08376D
:10032000BD4680BD000C02400010024080B582B086
:1003300000AF0820012100F073F916480C210222B9
:1003400000F01AFD4FF480533B6002233B71002301
:100350007B710023BB710023FB713B460D4819469E
:1003600000F060FC0420012100F05AF940233B60BA
:1003700001233B710023BB710023FB713B46064800
:10038000194600F04FFC0448402100F0D9FC083722
:10039000BD4680BD000C02400008024080B596B00A
:1003A00000AF0023FB6100233B6200237B6210232C
:1003B000BB620023FB6200237B630023BB6300233B
:1003C000FB634FF480533B6400237B6400233B6357
:1003D0000023BB640023FB643B463B6504233B6076
:1003E00000237B600123BB600923FB6000233B618A
:1003F00000237B610023BB613B467B6507F11C0347
:10040000184600F04BFB0020012100F0E1FB5837BB
:10041000BD4680BD80B500AFFFF7FAFE322000F088
:10042000CDF9FFF783FF322000F0C8F9FFF7B6FFE0
:10043000322000F0C3F980BD80B582B000AFFFF775
:10044000E9FFFFF7A1FE00F065F810200F2100F092
:1004500003FB0A2000F0B2F90420812100F0FCFA2D
:100460000A2000F0ABF900F00DFB0346FB801420DE
:10047000632100F0F1FA1520002100F0EDFA1620BA
:10048000032100F0E9FA1720022100F0E5FA182014
:100490000B2100F0E1FA1920DF2100F0DDFA1A202B
:1004A000012100F0D9FA1B20202100F0D5FA1C20F0
:1004B000002100F0D1FA1D20162100F0CDFA1E20F7
:1004C000002100F0C9FA1F20012100F0C5FA3020F8
:1004D000002100F0C1FA3120002100F0BDFA3420E3
:1004E0001F2100F0B9FA3520032100F0B5FA3220BF
:1004F000002100F0B1FA3320002100F0ADFA3620DF
:10050000DF2100F0A9FA3720012100F0A5FA083711
:10051000BD4680BD80B500AF88200B2100F09CFA5D
:10052000142000F04BF98920022100F095FA1420E4
:1005300000F044F980BD00BF80B582B000AF0F4B22
:100540007B600F4B3B6007E03B681A1D3A607A689E
:10055000111D796012681A603B680A4A9342F3D30E
:1005600009480A494FF000028842B8BF40F8042BFE
:10057000FADB00F011F80837BD4680BD9411000881
:1005800000000020140000201400002018000020AB
:1005900080B400AFFEE700BF80B582B000AF00F0CE
:1005A00033FC00F0E3F800F05FF9FFF745FF4FF48C
:1005B000FA7000F003F9FFF707FE00F029F90A20AE
:1005C00000F0FCF800F01CF94FF4784000F00CFA51
:1005D00040F6C41000F0F2F86420C821C8224FF49D
:1005E000967300F055F96420C82100F019F9022033
:1005F00000F014FA00237B6007E01F2000F01EFAD1
:1006000000F0F0F87B6801337B607B6842F2D872BF
:100610009342F2D94FF4FA6000F0D0F8FEE700BF41
:1006200080B483B000AF78600B46FB70FB78002B82
:1006300006D00949084B1A6B7B6813430B6306E02D
:100640000549054B1A6B7B68DB4313400B630C3782
:10065000BD465DF8047B70470038024080B483B02B
:1006600000AF78600B46FB70FB78002B06D0094981
:10067000084B9A6B7B6813438B6306E00549054B77
:100680009A6B7B68DB4313408B630C37BD465DF888
:10069000047B70470038024080B483B000AF7860BC
:1006A0000B46FB70FB78002B06D00949084B1A6CEF
:1006B0007B6813430B6406E00549054B1A6C7B68A5
:1006C000DB4313400B640C37BD465DF8047B704779
:1006D0000038024080B483B000AF03463960FB713C
:1006E00097F90730002B0BDA0D49FB7903F00F0364
:1006F000043B3A68D2B21201D2B20B441A7609E036
:10070000084997F907303A68D2B21201D2B20B44C5
:1007100083F800230C37BD465DF8047B704700BFAB
:1007200000ED00E000E100E080B582B000AF78604D
:100730007B68B3F1807F01D3012311E00A4A7B6813
:1007400023F07F43013B53604FF0FF300F21FFF751
:10075000C1FF054B00229A60034B07221A60002359
:1007600018460837BD4680BD10E000E080B500AFF8
:10077000064B00221A60064B1B68064AA2FB0323A5
:100780009B091846FFF7D0FF80BD00BF1400002072
:1007900000000020D34D621080B400AF064B1B68F0
:1007A000002B04D0044B1B68013B034A1360BD4679
:1007B0005DF8047B704700BF1400002080B483B054
:1007C00000AF7860064A7B68136000BF044B1B686B
:1007D000002BFBD10C37BD465DF8047B704700BF92
:1007E0001400002080B582B000AF00F04BF9034642
:1007F000FB71FB795BB2002BF7DB0837BD4680BD90
:1008000080B500AF0120802100F026F980BD00BF37
:1008100080B500AF0120002100F01EF980BD00BFAF
:1008200080B582B000AF03460A46FB801346BB800A
:10083000FB884620194600F00FF9FB881B0A9BB283
:100840004720194600F008F9BB884820194600F0F7
:1008500003F9BB881B0A9BB24920194600F0FCF83B
:100860000837BD4680BD00BF80B500AF07484021B6
:1008700000F074FA0120FFF7A1FF0448402100F0C6
:100880005FFA0A20FFF79AFF80BD00BF0008024010
:1008900090B583B000AF0446084611461A46234679
:1008A000FB800346BB800B467B8013463B80FB8866
:1008B000DBB29BB23020194600F0CEF8FB881B0A51
:1008C0009BB23120194600F0C7F8BB88DBB29BB25F
:1008D0003420194600F0C0F8BB881B0A9BB23520B3
:1008E000194600F0B9F87B88DBB29BB2322019467A
:1008F00000F0B2F87B881B0A9BB23320194600F047
:10090000ABF83B88DBB29BB23620194600F0A4F866
:100910003B881B0A9BB23720194600F09DF80C3724
:10092000BD4690BD80B582B000AF0346FB80FB881A
:10093000DB0A9BB26320194600F08EF8FB8803F4B3
:10094000FC635B119BB26420194600F085F8FB88BC
:1009500003F01F039BB26520194600F07DF80837AD
:10096000BD4680BD90B583B000AF04460846114631
:100970001A462346FB800346BB800B467B8013460A
:100980003B80FB889120194600F066F8FB881B0A23
:100990009BB29220194600F05FF8BB88932019465D
:1009A00000F05AF8BB881B0A9BB29420194600F04D
:1009B00053F87B889520194600F04EF87B881B0A77
:1009C0009BB29620194600F047F83B8897201946BD
:1009D00000F042F83B881B0A9BB29820194600F0B1
:1009E0003BF80C37BD4690BD80B582B000AF0346E2
:1009F000FB80FB881846FFF795FF002000214FF48D
:100A0000487240F2DF13FFF7ADFF9020B02100F0F5
:100A100023F8FFF7F5FE0837BD4680BD80B483B0EC
:100A200000AF0346FB80044AFB8813800C37BD46A9
:100A30005DF8047B704700BF0000106080B483B095
:100A400000AF0346FB804FF0C042FB8813800C3799
:100A5000BD465DF8047B704780B582B000AF0346A9
:100A60000A46FB801346BB80FB881846FFF7D6FF7B
:100A70000520FFF7A3FEBB881846FFF7DFFF083706
:100A8000BD4680BD80B400AF034B1B889BB21846A7
:100A9000BD465DF8047B70470000106080B483B0F1
:100AA00000AF78604FF020407B681B687A6851681F
:100AB0007A68926811437A68D26811437A68126939
:100AC00011437A68526911437A68926911437A68CE
:100AD000D26911437A68126A11437A68526A1143E3
:100AE0007A68926A11437A68D26A11437A68126B03
:100AF0000A4340F823207B689B68082B0DD14FF0F8
:100B000020417B681B684FF020407A68126850F8DB
:100B1000222042F0400241F823204FF020407B6821
:100B20001B6801337A68526B11687A68526B52689D
:100B3000120111437A68526B9268120211437A686B
:100B4000526BD268120411437A68526B1269120513
:100B500011437A68526B5269120611437A68526BDC
:100B600092690A4340F823207B68DB6AB3F5804F23
:100B700020D116487B681B687A68926B11687A6886
:100B8000926B5268120111437A68926B926812025A
:100B900011437A68926B1269120511437A68926B5D
:100BA0005269120611437A68926B92690A4340F8BF
:100BB000232006E0054A7B681B686FF0704142F80D
:100BC00023100C37BD465DF8047B7047040100A07C
:100BD00080B483B000AF78600B46FB70FB78002BCD
:100BE0000CD04FF020414FF020427B6852F8233068
:100BF00043F001027B6841F823200BE04FF02041D5
:100C00004FF020427B6852F82320054B13407A684E
:100C100041F822300C37BD465DF8047B704700BFB9
:100C2000FEFF0F0080B487B000AF7860396000230A
:100C30007B6100233B610023FB6000237B6176E046
:100C40007B69012202FA03F33B613B681A683B6946
:100C50001340FB60FA683B699A4265D17B681A6869
:100C60007B695B00194603238B40DB431A407B689A
:100C70001A607B681A683B681B7919467B695B00C0
:100C800001FA03F31A437B681A603B681B79012B56
:100C900003D03B681B79022B2ED17B689A687B6955
:100CA0005B00194603238B40DB431A407B689A6044
:100CB0007B689A683B685B7919467B695B0001FA3F
:100CC00003F31A437B689A607B685A687B699BB21E
:100CD000194601238B40DB431A407B685A607B68CE
:100CE0005B683A68927911467A6992B201FA02F227
:100CF00092B21A437B685A607B68DA687B699BB260
:100D00005B00032101FA03F3DB431A407B68DA60DE
:100D10007B68DA683B68DB7919467B695B0001FA1E
:100D200003F31A437B68DA607B6901337B617B697B
:100D30000F2B85D91C37BD465DF8047B704700BF7B
:100D400080B483B000AF78600B467B807B687A8884
:100D50001A830C37BD465DF8047B704780B483B0BE
:100D600000AF78600B467B807B687A885A830C37AB
:100D7000BD465DF8047B704780B485B000AF7860F5
:100D80000B467B8013467B700023FB600023BB6017
:100D90007B787A8802F0070292009340FB607B88A0
:100DA000DB089BB218467B88DB089BB21A467B683F
:100DB000083253F822207B8803F007039B00194672
:100DC0000F238B40DB4302EA03017B6800F108023A
:100DD00043F822107B88DB089BB21A467B680832F6
:100DE00053F82220FB681343BB607B88DB089BB26F
:100DF0001A467B680832B96843F822101437BD469A
:100E00005DF8047B704700BF80B500AF114A114BFD
:100E10001B6843F0010313600E4B00229A600D4AD9
:100E20000C4B1B6823F0847323F480331360094B4D
:100E3000094A5A60074A074B1B6823F48023136052
:100E4000044B0022DA6000F00BF8044B4FF0006214
:100E50009A6080BD003802401030002400ED00E0B0
:100E600080B483B000AF00237B6000233B60354A31
:100E7000344B1B6843F480331360324B1B6803F41C
:100E800000333B607B6801337B603B68002B03D100
:100E90007B68B3F5A06FF0D12A4B1B6803F40033D5
:100EA000002B02D001233B6001E000233B603B6844
:100EB000012B42D1234A234B1B6C43F08053136414
:100EC000214A214B1B6843F4804313601D4A1D4B8C
:100ED0009B6893601B4A1B4B9B6843F400439360E1
:100EE000184A184B9B6843F4A0539360154B174A5C
:100EF0005A60144A134B1B6843F08073136000BFA1
:100F0000104B1B6803F00073002BF9D0104B40F21C
:100F100005621A600B4A0B4B9B6823F00303936036
:100F2000084A084B9B6843F00203936000BF054BDF
:100F30009B6803F00C03082BF9D10C37BD465DF814
:100F4000047B70470038024000700040195440078D
:100F5000003C024080B485B000AF78603960002367
:100F6000FB817B681B88FB817B68284A934213D0F6
:100F70007B68274A93420FD07B68B3F1804F0BD038
:100F80007B68244A934207D07B68234A934203D06C
:100F90007B68224A934208D1FB8923F07003FB81CE
:100FA0003B685A88FB891343FB817B681C4A934248
:100FB0000CD07B681B4A934208D0FB8923F4407312
:100FC000FB813B681A89FB891343FB817B68FA89A3
:100FD0001A803B685A687B68DA623B681A887B68CB
:100FE0001A857B68094A934203D07B68084A93427A
:100FF00004D13B689B7A9AB27B681A867B6801228F
:101000009A821437BD465DF8047B704700000140AA
:10101000000401400004004000080040000C0040B3
:10102000001000400014004080B483B000AF78602E
:101030000B46FB70FB78002B08D07B681B889BB2AB
:1010400043F001039AB27B681A8007E07B681B8833
:101050009BB223F001039AB27B681A800C37BD461D
:101060005DF8047B704700BF80B485B000AF786046
:10107000396000237B810023FB810023BB817B68D7
:101080001B8C9BB223F001039AB27B681A847B68A5
:101090001B8CFB817B689B88BB817B681B8B7B8166
:1010A0007B8923F070037B817B8923F003037B81A1
:1010B0003B681A887B8913437B81FB8923F00203F9
:1010C000FB813B689A89FB891343FB813B685A8803
:1010D000FB891343FB817B681E4A934203D07B68E4
:1010E0001D4A934223D1FB8923F00803FB813B680F
:1010F000DA89FB891343FB81FB8923F00403FB811D
:101100003B689A88FB891343FB81BB8923F4807376
:10111000BB81BB8923F40073BB813B681A8ABB89FE
:101120001343BB813B685A8ABB891343BB817B68ED
:10113000BA899A807B687A891A833B689A687B6847
:101140005A637B68FA891A841437BD465DF8047BBC
:10115000704700BF000001400004014080B485B02A
:1011600000AF78600B467B800023FB817B681B8B84
:10117000FB81FB8923F00803FB81FA897B881343F9
:10118000FB817B68FA891A831437BD465DF8047BBE
:04119000704700BFE5
:10119400007A030A000000000000000001020304BA
:0411A4000607080929
:0400000508000000EF
:00000001FF
